:1000000001308A00E1290000FF00030E8301A100F6
:100010007F08A0000A08A7008A01A00E0408A20019
:100020007708A3007808A4007908A5007A08A6003C
:10003000831383128B1E1E280B194F28220884005D
:100040002308F7002408F8002508F9002608FA001C
:1000500027088A00210E8300FF0E7F0E09000A1078
:100060008A100A1182070C3448346F3472346134B8
:100070002034433465347234743461343A340A348D
:1000800025343034323469343A342534303432341F
:1000900069343A3425343034323469340034AB0AAC
:1000A0000319AC0A2B08E83C031D69282C08033C03
:1000B000031D6928A80A28083C3C031D6728A801DD
:1000C000A90A29083C3C031D6728A901AA0AAC011A
:1000D000AB010B118A111E283430840083130008F1
:1000E000031980280130F800F701F70B7528F80B89
:1000F00074284A30F700F70B7B287E28800B722883
:1001000008003B0EF039F7000F3006057704860033
:1001100000008615831686118D288312861183169A
:100120008611831208000608F700060E0F39F80042
:100130000800831686118610061183128610831616
:1001400086100F300605F0388600831206158316D8
:100150000611000083128615831686110000831293
:1001600093207808BB008611831686110000831245
:100170008615831686110000831293207808BA0032
:100180008611831686110F300605860083123B0EFA
:10019000F700F030F70577083A04F8007808BA005D
:1001A000BA1FD4288316A128B808031DD9288610A1
:1001B000DA2886148316861000008312061183162F
:1001C0000611000083128611831686118312390EE0
:1001D000BA000F30BA053A08BB00812039080F3940
:1001E000BA00BB00812008002830AE000C30AF0000
:1001F0000130B0000630B1008611831686118312DB
:1002000086108316861083120611831606110F308E
:10021000060586008611861006110F308312B40081
:100220006C200130AD002D08033C031C1F29033056
:10023000BB0081200530B4006C20AD0A13290230C8
:10024000BB0081200530B4006C20AD012D08033CBB
:10025000031C36292E302D07840083130008B200BA
:10026000B8013208B9009920AD0A2629EA29350BD0
:100270003A293D294030B6003E29B601013034020A
:10028000B60736088038B700B8013708B90099209A
:1002900008003308073A031957290B3A03195C2958
:1002A000063A03196429023A03196A296F290130B1
:1002B000B400B50037217429B8010130B900992084
:1002C0000230B4006C2074290130B4000230B50053
:1002D00037217429B8011030B900992074290130F0
:1002E000B8003308B900992008003408F801330237
:1002F00003187D293308F7008929F7010830B50074
:10030000B30DF70D340877020318F700F80DB50B9D
:100310008029080020302E1E3030AF002D08F70055
:10032000AD1F9A29F709F70A7708AD002D30AF0005
:10033000AE172E142D08B3006430B4007521770871
:10034000AD0030307807B0002D08B3000A30B4009B
:10035000752130307707B20030307807B1002F08B0
:10036000F700303030020319B929AE14AE1B2E1538
:10037000CD292E19CD292F08B000AE18C429303050
:1003800031020319C7292E14AE1BAE14CD29031D4B
:100390002E14031DCD293008B1002E19D429AE1812
:1003A000D7292E18DA29DD292F08B3004921300872
:1003B000B30049213108B30049213208B300492173
:1003C000080003081F398300AC01AB0107309F0010
:1003D0008313F42883160108C03901388100831281
:1003E00090010030F8009200003083169200073030
:1003F00083129F008316050885000230F700F70B73
:10040000FF29022A000083121F080C1383169F0184
:1004100083128B16C0308B04AD012D082F20AD0A3E
:10042000F700B30049210D302D02031D0D2A2A08C3
:10043000AD000130AE008A213A30B30049212908CD
:10044000AD000130AE008A213A30B30049212808BE
:10045000AD000130AE008A21C830B4006C200C2AF7
:02046000630037
:02400E00213F50
:00000001FF
;PIC16F628A
;CRC=69FE  CREATED="02-nov-17 23:47"
